{
  "contractName": "Interaction",
  "abi": [
    {
      "inputs": [],
      "stateMutability": "nonpayable",
      "type": "constructor"
    },
    {
      "inputs": [],
      "name": "amount",
      "outputs": [
        {
          "internalType": "uint256",
          "name": "",
          "type": "uint256"
        }
      ],
      "stateMutability": "view",
      "type": "function",
      "constant": true
    },
    {
      "inputs": [],
      "name": "owner",
      "outputs": [
        {
          "internalType": "address",
          "name": "",
          "type": "address"
        }
      ],
      "stateMutability": "view",
      "type": "function",
      "constant": true
    },
    {
      "inputs": [
        {
          "internalType": "uint256",
          "name": "",
          "type": "uint256"
        }
      ],
      "name": "users",
      "outputs": [
        {
          "internalType": "address payable",
          "name": "",
          "type": "address"
        }
      ],
      "stateMutability": "view",
      "type": "function",
      "constant": true
    },
    {
      "inputs": [],
      "name": "getCurrentUsersCount",
      "outputs": [
        {
          "internalType": "uint256",
          "name": "",
          "type": "uint256"
        }
      ],
      "stateMutability": "view",
      "type": "function",
      "constant": true
    },
    {
      "inputs": [],
      "name": "addUsers",
      "outputs": [],
      "stateMutability": "payable",
      "type": "function",
      "payable": true
    },
    {
      "inputs": [],
      "name": "getCurrentContractBalance",
      "outputs": [
        {
          "internalType": "uint256",
          "name": "",
          "type": "uint256"
        }
      ],
      "stateMutability": "view",
      "type": "function",
      "constant": true
    },
    {
      "inputs": [],
      "name": "deleteUsers",
      "outputs": [],
      "stateMutability": "nonpayable",
      "type": "function"
    },
    {
      "inputs": [],
      "name": "getCurrentUser",
      "outputs": [
        {
          "internalType": "address payable[]",
          "name": "",
          "type": "address[]"
        }
      ],
      "stateMutability": "view",
      "type": "function",
      "constant": true
    }
  ],
  "bytecode": "0x608060405234801561001057600080fd5b50336000806101000a81548173ffffffffffffffffffffffffffffffffffffffff021916908373ffffffffffffffffffffffffffffffffffffffff1602179055506000600181905550610885806100686000396000f3fe60806040526004361061007a5760003560e01c806343ae37c31161004e57806343ae37c3146101085780636d790081146101335780638da5cb5b1461015e578063aa8c217c146101895761007a565b80622990a71461007f5780631709ff0814610096578063365b98b2146100c15780633ae8038e146100fe575b600080fd5b34801561008b57600080fd5b506100946101b4565b005b3480156100a257600080fd5b506100ab6102a4565b6040516100b89190610520565b60405180910390f35b3480156100cd57600080fd5b506100e860048036038101906100e3919061056c565b6102b1565b6040516100f591906105da565b60405180910390f35b6101066102f0565b005b34801561011457600080fd5b5061011d6103a0565b60405161012a91906106b3565b60405180910390f35b34801561013f57600080fd5b5061014861042e565b6040516101559190610520565b60405180910390f35b34801561016a57600080fd5b50610173610436565b60405161018091906106f6565b60405180910390f35b34801561019557600080fd5b5061019e61045a565b6040516101ab9190610520565b60405180910390f35b60008054906101000a900473ffffffffffffffffffffffffffffffffffffffff1673ffffffffffffffffffffffffffffffffffffffff163373ffffffffffffffffffffffffffffffffffffffff1614610242576040517f08c379a000000000000000000000000000000000000000000000000000000000815260040161023990610794565b60405180910390fd5b600067ffffffffffffffff81111561025d5761025c6107b4565b5b60405190808252806020026020018201604052801561028b5781602001602082028036833780820191505090505b50600290805190602001906102a1929190610460565b50565b6000600280549050905090565b600281815481106102c157600080fd5b906000526020600020016000915054906101000a900473ffffffffffffffffffffffffffffffffffffffff1681565b67016345785d8a000034101561033b576040517f08c379a00000000000000000000000000000000000000000000000000000000081526004016103329061082f565b60405180910390fd5b6002339080600181540180825580915050600190039060005260206000200160009091909190916101000a81548173ffffffffffffffffffffffffffffffffffffffff021916908373ffffffffffffffffffffffffffffffffffffffff160217905550565b6060600280548060200260200160405190810160405280929190818152602001828054801561042457602002820191906000526020600020905b8160009054906101000a900473ffffffffffffffffffffffffffffffffffffffff1673ffffffffffffffffffffffffffffffffffffffff16815260200190600101908083116103da575b5050505050905090565b600047905090565b60008054906101000a900473ffffffffffffffffffffffffffffffffffffffff1681565b60015481565b8280548282559060005260206000209081019282156104d9579160200282015b828111156104d85782518260006101000a81548173ffffffffffffffffffffffffffffffffffffffff021916908373ffffffffffffffffffffffffffffffffffffffff16021790555091602001919060010190610480565b5b5090506104e691906104ea565b5090565b5b808211156105035760008160009055506001016104eb565b5090565b6000819050919050565b61051a81610507565b82525050565b60006020820190506105356000830184610511565b92915050565b600080fd5b61054981610507565b811461055457600080fd5b50565b60008135905061056681610540565b92915050565b6000602082840312156105825761058161053b565b5b600061059084828501610557565b91505092915050565b600073ffffffffffffffffffffffffffffffffffffffff82169050919050565b60006105c482610599565b9050919050565b6105d4816105b9565b82525050565b60006020820190506105ef60008301846105cb565b92915050565b600081519050919050565b600082825260208201905092915050565b6000819050602082019050919050565b61062a816105b9565b82525050565b600061063c8383610621565b60208301905092915050565b6000602082019050919050565b6000610660826105f5565b61066a8185610600565b935061067583610611565b8060005b838110156106a657815161068d8882610630565b975061069883610648565b925050600181019050610679565b5085935050505092915050565b600060208201905081810360008301526106cd8184610655565b905092915050565b60006106e082610599565b9050919050565b6106f0816106d5565b82525050565b600060208201905061070b60008301846106e7565b92915050565b600082825260208201905092915050565b7f796f7520617265206e6f7420746865206675636b696e67206f776e6572206f6660008201527f207468697320636f6e7472616374000000000000000000000000000000000000602082015250565b600061077e602e83610711565b915061078982610722565b604082019050919050565b600060208201905081810360008301526107ad81610771565b9050919050565b7f4e487b7100000000000000000000000000000000000000000000000000000000600052604160045260246000fd5b7f696e76616c696420657468657220616d6f756e742070726f7669646564000000600082015250565b6000610819601d83610711565b9150610824826107e3565b602082019050919050565b600060208201905081810360008301526108488161080c565b905091905056fea26469706673582212206da9e1dc31a0d03223d1672cb6904fef3d160fa8efd16b2e29dc82c307991e3164736f6c63430008110033",
  "immutableReferences": {},
  "source": "// SPDX-License-Identifier: MIT\r\npragma solidity <=0.8.17;\r\n\r\ncontract Interaction {\r\n\r\n    address public owner;\r\n    uint public amount;\r\n    address payable [] public users;\r\n\r\n    constructor() {\r\n        owner = msg.sender; // owner of the contract;\r\n        amount = 0;\r\n    }\r\n\r\n    // get the current number of users\r\n    function getCurrentUsersCount() public view returns(uint) {\r\n        return users.length;\r\n    }\r\n\r\n    // a function to add users\r\n\r\n    function addUsers() public payable  {\r\n        require(msg.value >= 0.1 ether, \"invalid ether amount provided\");\r\n        users.push(payable(msg.sender));\r\n    }\r\n\r\n    // the balance of this contract\r\n    function getCurrentContractBalance() public view returns(uint) {\r\n        return address(this).balance;\r\n    }\r\n\r\n    function deleteUsers() public {\r\n        require(msg.sender == owner, \"you are not the fucking owner of this contract\");\r\n        users = new address payable[](0); // reseting the length\r\n    }\r\n\r\n    function getCurrentUser() public view returns(address payable[] memory) {\r\n        return users;\r\n    }\r\n}",
  "sourcePath": "E:\\Programming\\Web3\\web3\\interaction\\backend\\contracts\\interaction.sol",
  "compiler": {
    "name": "solc",
    "version": "0.8.17+commit.8df45f5f.Emscripten.clang"
  },
  "schemaVersion": "3.4.10",
  "updatedAt": "2022-11-14T10:27:19.475Z",
  "networkType": "ethereum",
  "devdoc": {
    "kind": "dev",
    "methods": {},
    "version": 1
  },
  "userdoc": {
    "kind": "user",
    "methods": {},
    "version": 1
  }
}